:1000000018C6000033C6000031C600002FC600002D
:100010002DC600002BC6000029C6000027C6000020
:1000200025C6000023C600000C94E3260C94332858
:100030000C9498261BC6000019C6000017C60000C5
:1000400015C6000013C6000011C600000FC6000050
:100050000DC600000C94BF2609C6000007C60000AC
:1000600005C6000003C6000001C60000FFC5000071
:10007000FDC50000FBC50000F9C50000F7C5000084
:10008000F5C50000F3C50000F1C50000EFC5000094
:10009000EDC50000EBC50000E9C50000E7C50000A4
:1000A000E5C50000E3C50000E1C500000631FF0919
:1000B00074A1010975150026FF00952075088102BD
:1000C000C005010902A10185020901A10005091964
:1000D000012908150025019508750181020501090E
:1000E0003009311581257F9502750881060938157B
:1000F00081257F950175088106050C0A3802158156
:10010000257F950175088106C0C005010980A10100
:10011000850319012AB700150126B700950175104E
:100120008100C0050C0901A101850419012AA00262
:10013000150126A002950175108100C00501090670
:10014000A101050719E029E71500250195087501AA
:1001500081029501750881010507190029FF150025
:1001600026FF009506750881000508190129051567
:10017000002501950575019102950175039101C056
:1001800009025400030100A0FA0904000001030160
:100190000100092111010001224400070581030823
:1001A0000001090401000103000000092111010000
:1001B00001227B00070582032000010904020001DF
:1001C0000300000009211101000122150007058329
:1001D000032000011201000200000008725062605A
:1001E0000100010200011203410074007200650069
:1001F000750073003600320000000E0350007200DC
:100200006F006600650074000000040309045B438E
:100210005D005B445D005B535D005B575D005B52BE
:100220005D00000000000000000000000000000071
:1002300000000000000000000000000000000000BE
:100240000000000000007E0F00D4FFFFFFC7000089
:10025000007800000000000000002A2B28000000A9
:100260000000000000000000000000000029000065
:1002700000002C1E3420212224342627252E362D42
:100280003738271E1F202122232425263333362EDC
:1002900037381F0405060708090A0B0C0D0E0F104E
:1002A0001112131415161718191A1B1C1D2F313093
:1002B000232D350405060708090A0B0C0D0E0F1037
:1002C0001112131415161718191A1B1C1D2F313073
:1002D000354C290A002575002F002575005D280082
:1002E00025640020002564002000256400200025EE
:1002F00064007C0025303258006D6F7573656B6546
:1003000079205B62746E7C782079207620685D2885
:100310007265702F61636C293A205B004C25640A7A
:1003200000703A097072696E742076616C7565733D
:100330000A643A097365742064656661756C747348
:100340000A75703A092B310A646E3A092D310A6C2C
:10035000743A092B31300A72743A092D31300A454A
:1003600053432F713A09717569740A0A7370656590
:1003700064203D2064656C7461202A206D61785F83
:100380007370656564202A20287265706561742029
:100390002F2074696D655F746F5F6D6178290A77CE
:1003A000686572652064656C74613A206375727368
:1003B0006F723D25642C20776865656C3D25640A65
:1003C00053656520687474703A2F2F656E2E7769B7
:1003D0006B6970656469612E6F72672F77696B69ED
:1003E0002F4D6F7573655F6B6579730A004D3E2005
:1003F000004D25753A25733E20003F0A003D20251B
:10040000750A003F0A0064656661756C74730A00C2
:1004100025750A003F0A000A092D2056616C756592
:1004200073202D0A00710A000A092D204D6F757383
:10043000656B6579202D0A00313A0964656C617934
:10044000282A31306D73293A2025750A323A096914
:100450006E74657276616C286D73293A2025750A71
:10046000333A096D61785F73706565643A2025756C
:100470000A343A0974696D655F746F5F6D61783A2B
:100480002025750A353A09776865656C5F6D617876
:100490005F73706565643A2025750A363A09776896
:1004A00065656C5F74696D655F746F5F6D61783AE7
:1004B0002025750A006B65796D61705F636F6E66EC
:1004C00069672E7261773A20253032580A2E737789
:1004D00061705F636F6E74726F6C5F636170736C79
:1004E0006F636B3A2025750A2E636170736C6F63BE
:1004F0006B5F746F5F636F6E74726F6C3A202575FB
:100500000A2E737761705F6C63746C5F6C677569DA
:100510003A2025750A2E737761705F7263746C5F81
:10052000726775693A2025750A2E737761705F6C62
:10053000616C745F6C6775693A2025750A2E737754
:1005400061705F72616C745F726775693A202575BE
:100550000A2E6E6F5F6775693A2025750A2E7377CC
:1005600061705F67726176655F6573633A202575B8
:100570000A2E737761705F6261636B736C6173687D
:100580005F6261636B73706163653A2025750A2E43
:100590006E6B726F3A2025750A2E737761705F65F6
:1005A00073636170655F636170736C6F636B3A2036
:1005B00025750A0064656275675F636F6E666967BB
:1005C0002E7261773A20253032580A2E656E6162AC
:1005D0006C653A2025750A2E6D61747269783A202F
:1005E00025750A2E6B6579626F6172643A202575F4
:1005F0000A2E6D6F7573653A2025750A006565636F
:100600006F6E6669673A0A64656661756C745F6CE3
:10061000617965723A20256C750A000A092D204D12
:1006200061676963202D0A443A0944656275672051
:100630004D65737361676520546F67676C650A5811
:100640003A094D6174726978204465627567204D7E
:100650006F646520546F67676C65202D2053686F49
:1006600077206B65797072657373657320696E208E
:100670006D617472697820677269640A4B3A094B3C
:100680006579626F61726420446562756720546F9A
:1006900067676C65202D2053686F77206B657970D4
:1006A00072657373207265706F72740A4D3A0944F3
:1006B00065627567204D6F75736520546F67676C51
:1006C000650A563A0956657273696F6E0A533A099C
:1006D0005374617475730A433A09416374697661AE
:1006E000746520436F6E736F6C65204D6F64650A8F
:1006F00046312D4631303A09537769746368207466
:100700006F204C6179657220302D392028463130B8
:10071000203D204C30290A302D393A09537769742D
:10072000636820746F204C6179657220302D390A1E
:1007300047524156453A0953776974636820746F8C
:10074000204C6179657220302028616C7465726E6E
:10075000617465290A423A094A756D7020746F20E8
:10076000426F6F746C6F616465720A4553433A0956
:100770004A756D7020746F20426F6F746C6F616486
:1007800065722028616C7465726E617465290A4512
:100790003A095072696E7420454550524F4D2053AE
:1007A000657474696E67730A4241434B5350414309
:1007B000453A09436C65617220454550524F4D0AD8
:1007C000002573000A092D20537461747573202D60
:1007D0000A686F73745F6B6579626F6172645F6CD6
:1007E00065647328293A20253032580A6B6579628E
:1007F0006F6172645F70726F746F636F6C3A202503
:100800003032580A6B6579626F6172645F69646C3B
:10081000653A20253032580A74696D65725F7265D9
:100820006164333228293A202530386C580A003F59
:10083000000A6D6F7573653A206F66660A000A6D6F
:100840006F7573653A206F6E0A000A6B6579626F87
:100850006172643A206F66660A000A6B6579626F9E
:100860006172643A206F6E0A000A6D617472697871
:100870003A206F66660A000A6D61747269783A20E0
:100880006F6E0A000A64656275673A206F66660AD1
:10089000000A64656275673A206F6E0A000A0A4AA8
:1008A000756D70696E6720746F20626F6F746C6F06
:1008B000616465722E2E2E2000433E2000436C653D
:1008C0006172696E6720454550524F4D0A00556E62
:1008D00069636F646520696E707574206D6F6465FF
:1008E0002073657420746F3A2025750A00556E696F
:1008F000636F646520696E707574206D6F64652028
:10090000696E697420746F3A2025750A00737573D7
:1009100070656E64696E67206B6579626F61726481
:100920000D0A000A002530313662003A20002530D9
:100930003258000A722F6320303132333435363763
:1009400038394142434445460A006C65645F74612E
:10095000736B3A20253032580A0029001E001F0010
:100960002000210022000000230024002500260092
:1009700027002A00350014001A000800150017008F
:1009800000001C0018000C00120013002D00E000F5
:1009900004241628074209210A2200000B220D21F7
:1009A0000E000F2833243400E1001D001B00060058
:1009B000190005002800110010003600370038002B
:1009C0002E000100010001000100E30023522C0071
:1009D00021522B0001000100010001000100010073
:1009E0000100010001000100000001000100010000
:1009F00001000100010035021E021F022002210237
:100A000022020000230224022502260227023102CC
:100A100001002F0030002F023002010000005000C2
:100A2000510052004F003802310001000100010066
:100A3000260227020100010001000100010001005F
:100A4000010001000100010001000100010001009E
:100A5000010001000100010001000100010001008E
:100A6000010001000100010001000000010001007F
:100A7000010001000100010001000100010001006E
:100A80000100010000000100457E467E477E010016
:100A9000010001000100010001000100010000004F
:100AA0000100407E417E427E437E447E0100010083
:100AB00001000100010001000100487E0100010069
:100AC000010001000100010001000100010001001E
:100AD000010001000100010001000100010001000E
:100AE000007C010001000100010001000000010084
:100AF00001000100010001000100010001000100EE
:100B00000100010001000000010024002500260072
:100B10000100A80001000100010001000100010026
:100B2000000001002100220023000100A9000100B3
:100B300001000100010001000100010001001E0090
:100B40001F0020000100AA000100010001000100B7
:100B50000100010001002B0027000100010001003D
:100B600001000A002530325820006B6579626F6100
:100B700072645F7265706F72743A2025303258204B
:100B80007C20004F6E6573686F743A2061637469EE
:100B900076653A2025640A004C4C4C4C4C4C005273
:100BA00052525252524C4C4C4C4C4C00525252529B
:100BB00052524C4C4C4C4C4C005252525252524C91
:100BC0004C4C4C4C4C4C5252525252524C4C4C4C41
:100BD0004C4C525252525252520A092D20436F6EBF
:100BE000736F6C65202D0A4553432F713A09717557
:100BF00069740A6D3A096D6F7573656B65790A00E2
:100C00003F00433E200044454255473A2064697303
:100C100061626C65642E0A0044454255473A20657E
:100C20006E61626C65642E0A000102E0200103E03F
:100C3000000011241FBECFEFDAE0DEBFCDBF12E00F
:100C4000A0E0B1E0E2E6F3E502C005900D92A03E1F
:100C5000B107D9F723E0A0EEB2E001C01D92A33E98
:100C6000B207E1F70E9490230C942E29C9C9FF9383
:100C7000EF93E091E002F091E102309709F00995DD
:100C8000EF91FF910895FC018591803011F0EFDF25
:100C9000FBCF0895FF27E0E230E247FF0CC041950B
:100CA00097FF09C0EDE26095709580959095611D64
:100CB000711D811D911D27FF02C0219530E350E277
:100CC000AA27660F771F881F991FAA1FA41710F065
:100CD000A41B63955A95A9F7AA3008F0A95FA05DF7
:100CE000AF93F395611571058105910541F7ED32DB
:100CF00011F4EF93F395F21718F43F93F395FBCFAC
:100D00008F91B5DFFA95E1F70895E991F991859111
:100D1000803021F0853219F0AADFF9CF089520E064
:100D2000E89455915532C1F3503311F468945591BC
:100D30005A3348F4505390F3220F022E220F220F01
:100D4000200D250FF4CF0EF42195899199915336FA
:100D500019F3533729F1533559F1BC0188279927E5
:100D6000E8945C3621F489919991689455915436B0
:100D700039F446EF7EF077FF0DC08FEF9FEF0AC08A
:100D800055374AE039F0583540E121F0523642E01B
:100D900009F00895FF93EF937DDFEF91FF91B7CFB7
:100DA000FF93EF93FC0181918030B9F360DFFBCFBB
:100DB000FF93EF9368DFF1CFDF93CF93CDB7DEB72B
:100DC0002596A3DFCF91DF910895DC01ED91FD9190
:100DD0008191FE93EE930895DC01ED91FD91849154
:100DE0003196FE93EE9308958295982F990F990F5F
:100DF0009C7C869586958373982B892F880F8A7A99
:100E000096959575892B08958093980390939903EF
:100E1000089580939A0390939B03089521E030E016
:100E200002C0220F331F8A95E2F780919A039091B6
:100E30009B03822B932BEDCF21E030E002C0220FE9
:100E4000331F8A95E2F72095309580919A0390910F
:100E50009B0382239323DDCF953090F58D3080F571
:100E6000E82FF0E08DE0989FE00DF11D112451E096
:100E7000E1FD54E0E0FD550FE2FD529583E0F6956B
:100E8000E7958A95E1F7EE0FFF1FEE0FFF1FE15A7E
:100E9000FC4F20E030E070E04191DF01CB01022EF9
:100EA00002C0969587950A94E2F78695880B842769
:100EB000852384278E932F5F3F4F2430310561F7C0
:100EC0000895292F953070F58D3060F590E03DE064
:100ED000239F800D911D1124682F677023E0969544
:100EE00087952A95E1F7FC01EE0FFF1FEE0FFF1F1C
:100EF000E15AFC4F40E050E080E0219130E0062EC6
:100F000002C0369527950A94E2F72170042E01C09D
:100F1000220F0A94EAF7822B4F5F5F4F443051054E
:100F200061F7089580E00895E091A3039091A203F2
:100F3000E91302C080E008959F0157E0E59FF001AA
:100F40001124EC55FC4F5181561306C050815813A3
:100F500003C05581541305C02F5F3F4FF901E7705F
:100F6000E7CF81E0089580915E0390E020E0022EBB
:100F7000001C0008281709060CF008952F5FF7CF12
:100F8000FC01DB018481813039F514968C91149732
:100F9000813011F581812DE0E081F0E0289FE00DA6
:100FA000F11D1124E856F44F94919A32A9F011964C
:100FB0008C91EE91F0E0289FE00DF11D1124E85690
:100FC000F44FE49181E09E1301C080E091E0EA32A9
:100FD00009F090E0892B089581E008952091950310
:100FE0002D79A1F4903578F49032C0F441E0833348
:100FF000910539F0C0F441E08E31910588F40497F1
:1010000028F0842F0895392F365511F040E0F9CF9C
:101010009C01205F364527303105C0F390E0E6CFD4
:101020008C97A1F7EECFC69741E0039750F3EECF30
:101030008091A3032091A203281301C00895019673
:101040008770FACF90919C038095892380939C03AD
:10105000282F277061F4891751F090919E0392FF19
:1010600006C0869586958695E7DE10929C030895C6
:101070008095982F809195038923809395030895F7
:10108000972F7530C8F46D30B8F48430C0F470E038
:101090002DE0929F600D711D112491E4899F600DD8
:1010A000711D1124FB01EE0FFF1FE65AF64F8591CB
:1010B0009591282F822F089520E090E0FBCF21E02A
:1010C000FCCF803E9105D1F1C8F48133910509F43C
:1010D00081C048F48932910509F471C08A329105C2
:1010E00009F47FC0089589339105E1F082389105B4
:1010F000C9F08533910509F45DC00895843E9105DA
:10110000D1F148F4823E910531F1833E910541F1E0
:1011100081EE90E00895863E9105C1F1873E9105EC
:10112000F1F1089520919D03237009F064C020918E
:101130009E0323FF14C089E290E0089520919D034F
:1011400020FD45C030919E0330FF09C024FD24C01E
:1011500083EE90E0089520919D0322FDF7CF08953E
:1011600020919D0322FD44C030919E0330FD43C079
:1011700024FFF5CF11C020919E0321FFF0CF809175
:101180009D0384FD09C087EE90E0089520919D03A2
:1011900023FFE5CF24FFF7CF80E090E00895209172
:1011A0009D0323FD2BC030919E0331FFE1CF84EEE0
:1011B00090E0089520919D0325FFD1CFBCCF2091D1
:1011C0009D0325FD1EC020919E0323FFC8CF89E308
:1011D00090E0089520919D0326FFC1CF8AE290E020
:1011E000089520919D0326FFBACF81E390E00895F2
:1011F00082EE90E0089580EE90E0089586EE90E013
:10120000089585E390E0089590919D0392FF10C0AA
:1012100041E0282F2471243009F040E031E0282FEC
:101220002871283009F030E0431711F02CE08227B4
:1012300093FF10C041E0282F2471243109F040E0D1
:1012400031E0282F2871283109F030E0431711F0E0
:101250002CE0822730919E0330FF10C051E0282FF0
:101260002171213009F050E041E0282F2871283009
:1012700009F040E0541711F029E0822731FF10C037
:1012800041E0282F2171213109F040E031E0282F81
:101290002871283109F030E0431711F029E0822746
:1012A00094FF02C083FD877E08950F931F93CF9311
:1012B000DF9307DFEC01D23508F04DC0D03508F0E0
:1012C000C3C0C03ED10530F5CD3CD10508F09AC071
:1012D000C83AD10578F4C53AD10508F090C0C130BC
:1012E000D10599F1CE010497813A910570F1C0E0E2
:1012F000D0E02BC0CE01885A91094B97C0F7C85A4D
:10130000D0E0CC0FDD1FCC58DD4F0990D881C02D27
:10131000D4641BC0D03490F4D03208F0A8C0C83ECA
:10132000D10598F0CE0191509F3108F78D2F6CDFD9
:10133000082F8C2F90E0C5DE902B54C08C2F90E0AE
:10134000C0DEDF70C82FD92BD06ACE01DF91CF91DC
:101350001F910F910895C03882E5D807B8F5C036BF
:1013600082E5D80708F056C0C03482E5D807C8F433
:10137000C03282E5D80708F047C08C2F8695869545
:1013800020E2829FC0011124C37021E030E002C03E
:10139000220F331FCA95E2F7E901C82BD92BDD686C
:1013A000D4CF8C2F86958695877020E2829FC001CE
:1013B0001124C37021E030E002C0220F331FCA9510
:1013C000E2F7E901C82BD92BDC68BFCFC03C82E52E
:1013D000D80750F48C2F8F71C03AD24580F5982FE2
:1013E00084EF906AEC01B1CFCE01805C924580978A
:1013F00008F07DCFDC2FDF71C0EFD06AA6CFA497B5
:10140000D064A3CFD065A1CF8C2F8F71D82FC1EF1F
:10141000D06A9BCF8C2F86958695877020E2829F1D
:10142000C0011124C37021E030E002C0220F331F3D
:10143000CA95E2F7E901C82BD92BDA6886CFE4DE3A
:10144000C0E0D82FD06281CF8C2F8F71DDDE93E08A
:10145000CC0FDD1F9A95E1F7DF70282F84FF04C0C1
:1014600090E1899F90011124C22FD0696ECF8D2FFA
:101470008F71CADE082F8C2F90E023DE902BEC01B9
:10148000E1CFCF92DF92FF920F931F93CF93DF9321
:101490006C0100919A0310919B03809198039091A5
:1014A0009903082B192BCFE0D0E081E090E00C2EBF
:1014B00002C0880F991F0A94E2F780239123892B99
:1014C00061F4219790F7F12C8F2DDF91CF911F912F
:1014D0000F91FF90DF90CF900895FC2EB6018C2FD6
:1014E000CFDDE3DE019769F3EFCF1F93CF93DF9357
:1014F000FC012581C081D181CE01211571F06115DA
:1015000061F0BFDF182F682FCE01A6DCBE01812F4E
:10151000B7DDDF91CF911F910895D3DC182FF6CF5F
:10152000CF93DF93EC01ADDFBE01AADDBEDEDF911C
:10153000CF910895FC012481211599F0808191813A
:10154000EFDF282F92959F70963099F060F4925FAC
:101550009F70923030F4203FB1F038F481E0283EA3
:1015600038F080E008959A5FF3CF81E0243FC9F717
:10157000089591E0213F09F090E081E0283E08F0D5
:1015800080E0892B089581E00895F894E82FE29592
:10159000EF70F0E041A18F7021E001C0220F8A9529
:1015A000EAF7922F9095942391A392A1822F892BF1
:1015B00082A378940895382F25EB3203C0011124BB
:1015C00097FF04C080589109892F089580589F4F34
:1015D000FBCF8091860380FF0DC06091000170E019
:1015E000660F771F6038710588F56115710581F107
:1015F000862F089581FF07C06091000184E0689FF5
:10160000B0011124EFCF82FF04C06091000188E097
:10161000F6CF909185039115B9F060910101809109
:101620000001961728F098E0899FB0011124DACFC5
:10163000899FC001112423E0880F991F2A95E1F7A3
:1016400070E00E948228CECF68E0D2CF8FE7089565
:1016500081E008958091860380FF0CC060910201B3
:1016600070E075956795759567956115710541F100
:10167000862F089581FF06C06091020170E0759584
:101680006795F3CF6091020182FD0BC090918403B6
:101690009115A1F06091030180910201961738F035
:1016A000682F70E06038710500F38FE70895899F17
:1016B000C001112470E00E948228F4CF61E0D8CFED
:1016C00081E00895E0914403F0914503309739F0AB
:1016D0000190F081E02D309711F00995089580E098
:1016E0000895F0CF0895A3E0B0E0E9E7FBE00C94A3
:1016F000AB28209106033091070328173907B1F072
:101700008093060390930703E0914403F09145030F
:10171000309761F00084F185E02D309739F023E0B7
:1017200029838A839B83CE01019609952396E2E063
:101730000C94C728A3E0B0E0E0EAFBE00C94AB28EF
:10174000209104033091050328173907B1F08093E5
:10175000040390930503E0914403F091450330970F
:1017600061F00084F185E02D309739F024E0298381
:101770008A839B83CE01019609952396E2E00C941F
:10178000C728A4EEB2E0EFEF90E02C91821759F059
:101790001196EF3F19F4211101C0E92F9F5F963098
:1017A000A1F7EF3F09F40895FE2FFF0FFF0BEE5155
:1017B000FD4F82830895E4EEF2E09191891302C017
:1017C000DF011E9292E0EA3EF907B9F70895809191
:1017D000050108952FB7F8948091000390910103BB
:1017E000A0910203B09103032FBF08952FB7F8947F
:1017F00060910003709101038091020390910303B3
:101800002FBF08950895FC012091F4023091F50254
:101810002617370748F06115710529F49091E80003
:101820009E779093E8009B0190E02115310541F4EB
:10183000911106C08091E80082FF32C080E00895D7
:10184000809111038115C1F18530C1F18091E800CB
:1018500083FD30C08091E80082FDECCF8091E800EC
:1018600080FFE3CF8091F3004091F200582F2115C3
:10187000310519F04830510558F091E048305105D4
:1018800009F090E04091E8004E774093E800CDCF1A
:1018900081918093F100215031094F5F5F4FE7CF75
:1018A00080911103811541F0853041F08091E8006D
:1018B00083FFC0CF81E0089582E0089583E008951A
:1018C000982F9093E900891771F07091EC002091A6
:1018D000ED005091F00021FD09C09F5F973089F71E
:1018E0008093E9000895762F242F50E03091EB008B
:1018F0003E7F3093EB003091ED003D7F3093ED0063
:101900003091EB0031603093EB007093EC0020934A
:10191000ED005093F0002091EE0027FDDECF0895FA
:101920008091EE0287FF13C08091E80082FF06C01D
:101930008091E8008B778093E800089580911103EF
:101940008111F2CF0895809111038115D9F380910F
:10195000E80080FFF8CF8091E8008E77ECCF2091EF
:10196000E4003091E50095E6A9012091EC00822F7A
:10197000817020FF06C08091E80080FF06C080E0F3
:1019800008952091E80022FD1AC08091110381156D
:1019900089F0853089F08091EB0085FD0FC02091A2
:1019A000E4003091E50042175307F9F29150E1F657
:1019B00084E0089582E0089583E0089581E0089529
:1019C000CF93DF93C8EDD0E088818F7E8883E7EDE9
:1019D000F0E080818160808384E082BF81E0809339
:1019E000ED0288818E7F8883E2EE10821092DA0009
:1019F000A1EEB0E01C9288818F778883888180680F
:101A0000888388818F7D888319BC1092110310927E
:101A1000EC02109210031092EB02A0EE8C918B7FDF
:101A20008C9388818160888342E060E080E048DFB9
:101A3000A1EEB0E08C918E7F8C93E2EEF0E080819D
:101A400081608083808188608083E0EE80818E7FEA
:101A50008083888180618883DF91CF910895E8ED4C
:101A6000F0E080818E7F80831092E2001092DA0095
:101A70001092E100A0EEB0E08C9181608C938081A7
:101A80008F77808319BCA7ED8C918E7F8C9380819A
:101A90008F7E80831092ED0208959FB7F894109284
:101AA000F7029FBF90911103943009F047C0209135
:101AB000E9009091EC002F7090FB992797F9922BF9
:101AC00023E02093E9002091EB0020FF34C0209117
:101AD000EE0027FF30C02091F602211521F0209161
:101AE000E80025FF28C01092F60226E03091E800B9
:101AF00035FF14C08093F1008091E80085FD27C078
:101B00008091E80080FFFCCF8091E8008E77809381
:101B1000E8009F709093E90080E0089530911103F0
:101B2000343049F43091EB0035FD05C0215041F4CB
:101B300081E08093F6029F709093E9008FEF089503
:101B4000EFE9FFE03197F1F700C00000CFCF8FB78A
:101B5000F89421E02093F7028FBFDBCF0F931F9300
:101B6000CF93DF93EB018A0190911103943059F5E3
:101B70008093E9008FEF9091E80095FD06C095ED08
:101B80009A95F1F700008150B1F78091E80085FF48
:101B90001AC0E5DE811112C08091E80085FD06C003
:101BA0008091E8008E778093E800F3CF888180935E
:101BB000F1000150104011F02196EECF8091E80025
:101BC0008E778093E800DF91CF911F910F91089558
:101BD000CF93DF93EC0148E050E0BC0181E0BEDF31
:101BE00088E0FE01A8EFB2E001900D928A95E1F73E
:101BF000DF91CF91089546E050E0BC0182E0AECF86
:101C000043E050E0BC0182E0A9CFA0E0B0E0EBE00F
:101C1000FEE00C94AB28809103011F928F9380917A
:101C200002011F928F93809101011F928F938091E7
:101C300000011F928F93809113011F928F938091C7
:101C400012011F928F9388E394E09F938F93B4D8EF
:101C50008DB79EB70E960FB6F8949EBF0FBE8DBF80
:101C6000E2E00C94C728A0E0B0E0E9E3FEE00C94C9
:101C7000AB28893209F46DC010F5833109F47FC0B7
:101C800040F4873009F4DAC08B3051F183E094E0FE
:101C9000E9C0843109F45DC0982F9E519A30B0F7A5
:101CA0008D5180930E03843009F072C081E091E081
:101CB00080930C0390930D038BE391E08EC08035ED
:101CC00009F4D5C030F4883359F08F34F9F68AE03E
:101CD000CFC0813509F4E2C08235C1F681E0C8C0C9
:101CE00088E294E09F938F9367D88FDF1F9281E003
:101CF0008F931F9288E08F9381E293E09F938F935D
:101D00005BD88DB79EB708960FB6F8949EBF0FBEEE
:101D10008DBF80910E03811509F4C9C020910A037B
:101D200030910B032115310511F425E131E03F938A
:101D30002F931F928F9381EF93E09F938F933CD8C3
:101D40000F900F900F900F900F900F90E2E00C9477
:101D5000C72885E294E09F938F932ED80F900F9021
:101D600080910E03811591F310920E0310920C03D3
:101D700010920D0310920A0310920B03CACF87E151
:101D800094E09F938F9318D840DF0F900F90C1CFAE
:101D900068F48230C1F18330C1F480E091E0809337
:101DA0000C0390930D038EE291E017C08530A1F1F2
:101DB0008630D9F110920E0384E194E09F938F93C3
:101DC0000E94DC060F900F900CC082E191E080939E
:101DD0000C0390930D0389E191E080930A039093A3
:101DE0000B0380910E03811509F493CF1F928F93FB
:101DF00080E194E09F938F930E94DC060F900F90F8
:101E00000F900F9086CF83E191E080930C03909325
:101E10000D0382E291E0E1CF82E091E080930C0338
:101E200090930D038AE491E0D8CF83E091E0809312
:101E30000C0390930D038DE591E0CFCF81E080936B
:101E4000120184E1809313018AE0809300018EE106
:101E50008093010188E08093020188E2809303016E
:101E600086E094E09F938F930E94DC068ECF86EFEE
:101E7000E0910C03F0910D033097B1F02081982F81
:101E8000990F990B820F911D913054F497FD0AC060
:101E900080831F928F938DEF93E0ACCF8FEFE8CFCD
:101EA0008FEFF6CF80E0F4CF8AEF93E0DBCF8DEEBB
:101EB00093E09F938F930E94DC060F900F9046CF84
:101EC000A0E0B0E0E6E6FFE00C94AB28809194033C
:101ED00083FF92C089EF92E09F938F930E94DC066C
:101EE000809188031F928F9384EF92E09F938F934A
:101EF0000E94DC0682EF92E09F938F930E94DC06A3
:101F000080918903982F990F990B9F938F938FEE50
:101F100092E09F938F930E94DC068DEE92E09F9358
:101F20008F930E94DC0680918A03982F990F990B5A
:101F30009F938F938AEE92E09F938F930E94DC068B
:101F400088EE92E09F938F930E94DC0680918B0332
:101F5000982F990F990B9F938F9385EE92E09F9303
:101F60008F930E94DC0683EE92E09F938F930E94F2
:101F7000DC0680918C03982F990F990B9F938F9378
:101F800080EE92E09F938F930E94DC068DED92E0AD
:101F90009F938F930E94DC068DB79EB780960FB6F5
:101FA000F8949EBF0FBE8DBF809185031F928F93C3
:101FB0008AED92E09F938F930E94DC0688ED92E079
:101FC0009F938F930E94DC06809186031F928F93CC
:101FD00085ED92E09F938F930E94DC0682ED92E064
:101FE0009F938F930E94DC068DB79EB70C960FB619
:101FF000F8949EBF0FBE8DBFEDDB9C0190918903CD
:1020000080918A03982B21F0209328033093290391
:1020100090918B0380918C03982B21F020932603C1
:1020200030932703E0914403F0914503309759F032
:102030000680F781E02D309731F082E080938703AE
:1020400087E893E00995E2E00C94C728611509F44C
:1020500040C0E82FED5CE33148F4F0E0E05DF64D80
:102060000C949528B6DA819580938A0329CFB1DA4A
:10207000FBCFAFDA819580938903F8CFAADAFBCF43
:10208000E9DA80938B03F2CFE5DA8195FACFE2DAD1
:10209000819580938C03EACFDDDAFBCF815D990BCC
:1020A00021E001C0220F8A95EAF780918803822BF4
:1020B00080938803DBCF80918603816080938603C1
:1020C000D5CF809186038260F9CF809186038460AA
:1020D000F5CF409189038D3C59F480918A0387FFA5
:1020E0000DC010928A03411559F41092850308C05F
:1020F0008E3C81F480918A0318169CF3411581F07F
:1021000080918B0390918C03892B09F0AFCF1092B3
:102110008403ACCF8F3C41F447FFF0CF109289038A
:1021200080918A038115E0CF803D19F41416B4F331
:10213000E5CF90918B03893D29F41916FCF6109296
:102140008B03DCCF8A3D19F497FFD8CFF8CF90915D
:102150008C038B3D29F497FFD1CF10928C03CECF07
:102160008C3D19F41916CCF3C9CF982F915D983096
:1021700078F4815D990B21E001C0220F8A95EAF77E
:10218000822F809590918803892380938803B6CF0E
:102190008D3D31F4809186038E7F80938603AECF90
:1021A0008E3D21F4809186038D7FF7CF8F3D09F01E
:1021B000A5CF809186038B7FF0CFCF93C82F8091DE
:1021C0009E0382FB992790F99C17F9F0C0FB82F9D6
:1021D00080939E0360919D0370919E0384E090E044
:1021E0000E940D2982E00E9422088091940380FFC2
:1021F0000CC01F92CF9383E89BE09F938F930E9424
:10220000DC060F900F900F900F90CF910895809360
:102210009103682F8CE090E00E94F3288091940352
:1022200080FF0EC0809191031F928F938EEC98E0F7
:102230009F938F930E94DC060F900F900F900F904A
:1022400008950F931F93CF93DF93809195039091FF
:102250009F03892B90919603911589F0892B90E02B
:1022600024EE32E0F90140812F5F3F4F41119F5F23
:1022700042E02A3E3407B1F7911110929603809301
:10228000E20248E050E066E473E082EE92E00E94F1
:102290002129892B09F450C088E0E2EEF2E0A6E49F
:1022A000B3E001900D928A95E1F7E0914403F0913B
:1022B0004503309709F440C00280F381E02D309748
:1022C000D9F182EE92E009958091940382FF34C0A7
:1022D00080FF0EC08091E2021F928F938AE69BE0FE
:1022E0009F938F930E94DC060F900F900F900F909A
:1022F000C2EED2E004E61BE08091940380FF0BC0A5
:102300008A811F928F931F930F930E94DC060F9078
:102310000F900F900F90219682E0C83ED80761F78A
:102320008091940380FF08C082E69BE09F938F9387
:102330000E94DC060F900F90DF91CF911F910F91BB
:10234000089510929503E4EEF2E086E011928A95EA
:10235000E9F780E090E0C7D980E090E0EBD91092F7
:102360009F036FDFE7E8F3E086E011928A95E9F7D3
:10237000109285031092840310928603A1CDE1DFB1
:102380008FEF94E32CE0815090402040E1F700C0B3
:10239000000088E19AE00FB6F894A8958093600059
:1023A0000FBE90936000FFCFCCDF8FEF94E32CE063
:1023B000815090402040E1F700C0000087E797E798
:1023C000809300089093010888E19AE00FB6F89492
:1023D000A895809360000FBE90936000FFCFCF93CD
:1023E000DF93EC0180915E03883010F0AADF80E07B
:1023F000E82FF0E0EE0FFF1FE25BFC4F9E01C08371
:1024000031838F5F80935E03DF91CF910895CF93E7
:10241000C82F1F928F938CE193E09F938F930E941C
:10242000DC0681E090E002C0880F991FCA95E2F7B0
:102430000E94040786DF0F900F900F900F90CF91AE
:102440000895AAE2B0E0E7E2F2E10C94AA288EEE49
:1024500092E0FC0101962091F100208322E0863F6A
:102460009207B9F78091EF02893009F457C0C8F498
:10247000823009F4B2C0833009F482C0813081F126
:102480008091E80083FFE6C08091EE029091EF0218
:102490009A3008F0DFC0E92FF0E0ED5BF64D0C94C8
:1024A00095288A3009F489C08B3051F78091EE026B
:1024B000813231F78091F2029091F302892B01F77A
:1024C0008091E800877F8093E8002ADA81E090918C
:1024D000F002911101C080E08093060132DFD0CF7D
:1024E0008091EE02813A61F68091E800877F8093C7
:1024F000E8008091F2029091F302892B59F060E09C
:1025000080E090E070E07FD98091E8008B77809345
:10251000E800B6CF68E088EF92E0F4CF8091EE0259
:10252000813209F0ADCF8091F2029091F3020297CF
:1025300008F0A6CF8091E800877F8093E800809123
:10254000E80082FF18C02091F3008091F200922FE2
:10255000029731F48091F100813011F0863021F43E
:102560008091F100809305018091E8008B77809342
:10257000E800D6D985CF809111038111E0CF80CFBB
:102580008091EE02813A09F07BCF8091F202909126
:10259000F302892B09F074CF8091E800877F809344
:1025A000E8008091E80080FFFCCF809106018093D5
:1025B000F1008091E8008E77DACF8091EE028132CF
:1025C00009F05ECF8091E800877F8093E800A8D96A
:1025D0008091F1028093040153CF8091EE02813A01
:1025E00009F04ECF8091E800877F8093E8008091CA
:1025F000E80080FFFCCF80910401D9CF803889F0BA
:10260000823841F58091F2028F70873018F58093FF
:10261000E9008091EB0085FB882780F91092E900A2
:1026200006C080911003880F9091EB02892B909146
:10263000E800977F9093E8008093F1001092F100FA
:102640008091E8008E7723C0811116C08091F0023E
:10265000813009F18091E80083FF0AC08091E80091
:10266000877F8093E8008091EB0080628093EB008D
:10267000AA96E3E00C94C628823061F78091F002BC
:10268000811579F01092E9008091E800877F8093AE
:10269000E80046D9DFCF933009F080E08093100343
:1026A000F1CF8091F2028F70282F2150263090F6C2
:1026B0008093E9002091EB0020FFE4CF933031F4C8
:1026C0008091EB0080628093EB00DCCF9091EB0077
:1026D00090619093EB0021E001C0220F8A95EAF708
:1026E0002093EA001092EA008091EB008860EBCF23
:1026F0008111B0CF8091F0028F77182F8091E30085
:102700008078812B8093E3008091E800877F80931D
:10271000E80006D98091E80080FFFCCF8091E300BB
:1027200080688093E30083E0111101C082E0809310
:10273000110390CF8058823008F08CCF8091F00246
:102740009091F1028C3D23E0920789F583E08A8322
:102750008AE289834FB7F894DE01139620E03EE0C9
:1027600051E2E32FF0E050935700849120FF03C023
:1027700082958F703F5F8F708A30B8F0895C8D933F
:102780001D922F5F243169F74FBF8091E800877F4A
:102790008093E8006AE270E0CE01019634D880911F
:1027A000E8008B778093E80055CF805DE8CF292F34
:1027B00030E02330310509F44DC078F52130310582
:1027C00009F47CC084E590E0E0E8F1E022303105D6
:1027D00009F040CF2091E800277F2093E800209166
:1027E000F4023091F5028217930708F49C0140E04F
:1027F0002115310509F067C0411165C08091E800DD
:1028000082FDCDCF80911103811549F2853039F2D7
:102810008091E80083FFF2CFC2CF8091F2029091C5
:10282000F30221323105D9F12232310509F012CFFC
:102830008330910508F00ECFFC01EE0FFF1FEA5A1E
:10284000FD4F0190F081E02D8D5A9D4FDC018C9160
:1028500090E011C0282F30E0813089F0223031051E
:10286000B1F0232B09F0F6CEEAE0F2E0E4918E2FEE
:1028700090E0EAE0F2E0009709F4ECCEABCFEAEFAB
:10288000F1E0E4918E2F90E0EAEFF1E0F4CFE6EE94
:10289000F1E0E4918E2F90E0E6EEF1E0ECCF8330B2
:1028A000910508F0D7CE880F991FFC01E45AFD4F1F
:1028B0000190F081E02D89E090E08CCF82E190E002
:1028C000E4EDF1E087CF80911103811509F467CF22
:1028D000853009F464CF8091E80083FD60CF80915A
:1028E000E80082FD8BCF8091E80080FF81CF40918E
:1028F000F3008091F200942F2115310519F08830F2
:10290000910550F041E0089709F040E08091E8001F
:102910008E778093E8006CCF44914093F10031961C
:10292000215031090196E8CF803809F093CE80918B
:10293000E800877F8093E8008091EC028093F100AB
:102940007FCE811187CE8091F002182F823008F05F
:1029500081CE8091E800877F8093E8001093EC029D
:102960000E94900C1115D1F084E08093110342E095
:1029700061EC81E00E94600C42E261EC82E00E9426
:10298000600C42E261EC83E00E94600C80911103D4
:10299000843051F482E0809307015CCE8091E300A3
:1029A00087FDE2CF81E0E1CF81E0F5CF811509F429
:1029B0004FC0823861F40E94710B81FF49C089E3E6
:1029C0000E94C10B3EDC89E30E94DB0B3ACC8338CA
:1029D00051F40E94710B80FF3BC083E50E94C10B44
:1029E00030DC83E5F1CF843851F40E94710B82FF13
:1029F0002FC087E40E94C10B24DC87E4E5CF982F29
:102A00009450913A08F3982F905E983058F4982F8C
:102A100081E091FD84E090FD880F92FD82950E94F7
:102A20003808D4CF982F955A933020F480E090E066
:102A30000C94730B982F985A9B3120F480E090E00F
:102A40000C949A0B982F9D5C933110F460E0FECAB1
:102A50000895811531F090919503982B90939503EB
:102A6000F0CB0895811519F00E943808EACB08953B
:102A7000811531F090919F03982B90939F03E1CBA8
:102A80000895811539F0809590919F038923809353
:102A90009F03D7CB089563EE7EEF80E090E00E9425
:102AA0000D2960E082E090E00E94F32881E090E050
:102AB000809398031092990361E083E00E94F328C9
:102AC00060E074E184E090E00E940D2960E08CE019
:102AD00090E00E94F32860E070E0AB018FE090E0AE
:102AE0000E94052960E070E0AB0183E190E00C9466
:102AF0000529AAE0B0E0EFE7F5E10C94A128FE017A
:102B00003196DF018AE01D928A95E9F722E6E22EEE
:102B100022E0F22E0FE612E031E0C32ED12CBE2EC1
:102B2000AF2EF70181917F018F3F09F44CC0F894DB
:102B3000E82FE295EF70F0E021A18F7041E001C035
:102B4000440F8A95EAF7922F942B91A392A1842F98
:102B50008095892382A3789400C09FE6892E92E015
:102B6000992EEB2DFA2D960120953095D4016D917B
:102B70004D01819191916F3F09F44BC0462F4295D1
:102B80004F70405E50E0DA014C916F7002C0559575
:102B900047956A95E2F740FD3CC08C299D29AF011D
:102BA00042505109DA018D939D9384E7881682E0A3
:102BB0009806E1F6F70182918F3F11F00E94C50A55
:102BC00080EA8A95F1F7CC0CDD1C0E151F0509F083
:102BD000A8CF4AE050E06B2D7A2D88E393E00E9465
:102BE0002129892BC9F08AE0EB2DFA2DA8E3B3E067
:102BF00001900D928A95E1F781E080932D030E9468
:102C0000EA0B80932B0390932C032A96ECE00C9410
:102C1000BD2882239323C3CF80912D038115A9F36F
:102C200000912B0310912C030E94EA0B801B910B47
:102C3000059758F34AE050E068E373E08EE293E0D2
:102C40000E942129892B49F08AE0E8E3F3E0AEE213
:102C5000B3E001900D928A95E1F710922D03D5CF44
:102C6000A2E0B0E0E6E3F6E10C94A3288B3258F43E
:102C7000853098F0E82FE550E63278F4F0E0E35B39
:102C8000F64D0C949528833490F48A3308F043C1B0
:102C9000853371F0883309F493C08FE298E09F93F5
:102CA0008F930E94DC060F900F9080E085C0A9F7FB
:102CB00080E0ADDB80C083E090E00E94E6281F92B8
:102CC0001F921F928F938DEF95E09F938F930E9499
:102CD000DC0682E090E00E94E62883FB992790F9C9
:102CE0001F929F9382FB992790F91F929F9381FBDC
:102CF000992790F91F929F93982F91701F929F93FD
:102D00001F928F9384EB95E09F938F930E94DC0634
:102D100084E090E00E94EE2893FB222720F91F9286
:102D20002F9387FB222720F91F922F9386FB2227C0
:102D300020F91F922F9385FB222720F91F922F93B2
:102D400084FB222720F91F922F9383FB222720F94F
:102D50001F922F9382FB222720F91F922F9391FB22
:102D6000222720F91F922F93292F21701F922F9332
:102D700081FB222720F91F922F93282F21701F9269
:102D80002F939F938F9385EB94E09F938F930E9453
:102D9000DC068DB79EB78C960FB6F8949EBF0FBE1B
:102DA0008DBF09C08DEB98E09F938F930E94DC0646
:102DB00072DE0F900F9081E02296EAE00C94BF281B
:102DC0008BE196E09F938F930E94DC06F2CF809177
:102DD0009403807F8093940389ED9BE09F938F936E
:102DE0000E94DC0689EB98E09F938F930E94DC069B
:102DF00081E0809383030F900F900F900F90DBCFB3
:102E00008DE998E09F938F930E94DC06CDDA909134
:102E10009403892F8E7F90FF81608093940380FFBD
:102E200003C081E998E0CECF84E898E09F938F9328
:102E30000E94DC0680919403817F80939403B9CF34
:102E400090919403892F8D7F91FF826080939403EA
:102E500081FF0AC087E798E09F938F930E94DC066A
:102E6000809194038160E9CF89E698E0ABCF90919F
:102E70009403892F8B7F92FF84608093940382FF59
:102E800003C08AE598E0E8CF8AE498E09BCF909170
:102E90009403892F877F93FF88608093940383FF37
:102EA00003C08EE398E0D8CF81E398E08BCF82E730
:102EB00091E09F938F9381EC97E09F938F930E9473
:102EC000DC0699CF0E94F60BD62EC72EB82EA92E5F
:102ED0000091040110E080910601E82EF12C0E947F
:102EE000620BAF92BF92CF92DF921F920F93E98253
:102EF0001A829A819F93E9821A8299819F931F92E5
:102F00008F9384EC97E09F938F930E94DC068DB79C
:102F10009EB70C9641CF8953CCCE8D51CACECF935C
:102F2000C82F8115B9F08238B9F40E94710B81FD68
:102F300011C089E30E94C10B84D98FEF97EE23E083
:102F4000815090402040E1F700C0000089E30E94DA
:102F5000DB0B77D9CF910895833899F40E94710BD8
:102F600080FDF8CF83E50E94C10B6BD98FEF91EE06
:102F700024E0815090402040E1F700C0000083E54C
:102F8000E6CF843899F40E94710B82FDE3CF87E489
:102F90000E94C10B56D98FEF91EE24E081509040F2
:102FA0002040E1F700C0000087E4D1CF8450813A8F
:102FB00008F055C0809183038130E1F0823009F43C
:102FC0004CC0811140C080919503823221F48C2F36
:102FD00047DE8111BFCFE4EEF2E08081C81709F42B
:102FE00070C0319682E0EA3EF807B9F78C2F0E9454
:102FF000C10BAFCF80919503823249F3C43119F1EF
:1030000068F4CB3079F0C03109F180E09CE09F9307
:103010008F930E94DC060F900F90DDCFC93299F09C
:10302000C83399F789ED9BE09F938F930E94DC064C
:1030300082E09CE09F938F930E94DC060F900F909C
:103040000F900F9087CF10928303C5CF82E08093BB
:10305000830388E30E94330E7DCF8C2FFBCF8C2F10
:10306000805E883060F4C77021E001C0220FCA95ED
:10307000EAF780919503822B809395036ACF8C2F7A
:10308000855A833030F48C2F8452990B0E94730B35
:1030900061CFEC2FE85AEB3150F4F0E0EE0FFF1F58
:1030A000E655FD4F808191810E949A0B53CF8C2F62
:1030B0008D5C833108F04ECF61E08C2F0E9426108A
:1030C00049CF8C2F0E94DB0BBCD890CFEF92FF92A0
:1030D0000F931F93CF93DF93EC018B017C01FA9444
:1030E0008FE1F816D0F4CB3181E0D807C1F481E04C
:1030F000BFDC8C2F14DF0115110599F48C2F56DCE1
:103100008FE1F816B8F4CB31D140B1F481E0B9DCED
:10311000CDB7DEB7E6E00C94C32880E0E9CF83E0CA
:10312000E7CF8FE99FE00197F1F700C00000015061
:103130001109E1CF80E0EBCF83E0E9CF1F93CF937C
:10314000DF93182FC0E5D0E0893311F0C0E0D0E064
:10315000812FE5DE209731F4812F28DCDF91CF919C
:103160001F9108958FE99FE00197F1F700C00000DB
:103170002197F0CFFF920F931F93CF93DF93C62F2A
:10318000D42FF22E8115A9F0609392030E94EA0BCE
:10319000809308039093090381E0C1FD84E0C0FDA2
:1031A000880FC2FD829555DCCDB7DEB7E5E00C9403
:1031B000C4288091920368132EC0009108031091D7
:1031C00009030E94EA0B801B910B8A3A910518F5BE
:1031D0001D2F105ECD1791F0C77001E0802F01C048
:1031E000880FCA95EAF73EDC183040F48D2F8770BF
:1031F00001C0000F8A95EAF7802F2BDC8F2D9EDF10
:1032000081E0D1FD84E0D0FD880FD2FD8295183099
:1032100058F628DCC9CF81E0C1FD84E0C0FD880FED
:10322000C2FD8295F6CFA0E0B0E0E9E1F9E10C94AF
:10323000A628E82FF0E0EE5AFD4F9491D92E282FC2
:1032400026952695269530E0F901EE5BFD4F049119
:10325000877010E0082E02C0159507950A94E2F7D2
:10326000F901EE5CFD4FE490F12C082E02C0F594BC
:10327000E7940A94E2F72E5D3D4FF901C491D0E046
:1032800002C0D595C7958A95E2F700FF02C081EE8E
:1032900046DEE0FE02C086EE42DE8D2D40DE8D2D44
:1032A00085DBE0FE02C086EE81DB00FF02C081EE1E
:1032B0007DDBC0FF02C08CE241DFCDB7DEB7E7E0C7
:1032C0000C94C22890919103923061F48A3040F4BA
:1032D000875F90E06AE070E00E948228875A2ECFD4
:1032E0008650FDCF982F9A50963010F0805D9BCF7E
:1032F000895AFDCFEF92FF920F931F93CF93DF93E5
:10330000EC018B01C801FE010995813060F109F0E3
:1033100046C0C801FE010995813029F4C801FE01AB
:1033200009950CDFEFCF823029F4C801FE01099521
:10333000F6DDE8CF833029F4C801FE01099536DBBC
:10334000E1CF843071F4C801FE010995E12CF12C24
:10335000282F2053330B2A30310550F0E114F104AB
:10336000A1F48111CFCFCDB7DEB7E6E00C94C3282E
:103370004AE04E9DC0014F9D900D1124280F391F2A
:103380007901C801FE010995E3CFEFE9FFE031972C
:10339000F1F700C0000091E0E91AF108DFCF43DF48
:1033A000B1CFA2E0B0E0E7EDF9E10C94A9288C01DF
:1033B00089E29CE089839A83CE010196BC018CEE60
:1033C00096E098DFC80109839A83CE010196BC017B
:1033D00085EE96E08FDF2296E4E00C94C5284F92AC
:1033E0005F926F927F929F92AF92BF92CF92DF9245
:1033F000EF92FF920F931F93CF93DF937C01FC0119
:103400008481811509F472C060E0C7010E94750AC9
:10341000F7012681203170F44091A3033091A2037B
:10342000431317C03091E103311521F03091E203CD
:10343000303178F0F7013581311124C0903580F5B5
:10344000903208F03FC0883E9105C0F4803E91055F
:10345000C8F061E0C7010E94750AEC01F70185819F
:10346000811509F483C0FE01E054FE47E930F105FF
:1034700008F064C0ED58F64D0C9495289C0131502D
:103480003F31E8F080938D0390938E03F7018281A2
:1034900093818093A0039093A10310921401D9CF3C
:1034A000803422E5920720F4803222E59207D0CFC3
:1034B0009C01205832452036310520F7CACF8111B2
:1034C000E1CFC7CF2031F9CF85E392E06ADF809169
:1034D0009C03877059F0F7018581811539F080913F
:1034E0009E0382FF03C082E00E942208DF91CF91F9
:1034F0001F910F91FF90EF90DF90CF90BF90AF9012
:103500009F907F906F905F904F90089587E392E037
:10351000DDCF89E392E0DACF8BE392E0D7CF8DE382
:1035200092E0D4CF8FE392E0D1CF81E492E0CECF8E
:1035300089E492E0CBCF81E592E0C8CFC5338CE738
:10354000D80709F44CC008F03CC0C3338CE7D80757
:1035500009F441C0C4338CE7D80709F43EC0C23334
:103560008CE7D80719F480E00E940711F701158154
:10357000111509F4CEC0D7FFCCC02E01E89457F83E
:10358000612C712C0E94710B809390039091910398
:10359000913021F481FF02C089E3D0DD8091950351
:1035A00080938F031092950310929F038091910353
:1035B000823009F44CC0B8F4811144C082EEAFDC13
:1035C00018C0C6338CE7D80761F0C7338CE7D8073B
:1035D00069F685E0C9CF81E0C7CF82E0C5CF83E03F
:1035E000C3CF84E0C1CF843009F442C0853009F4F0
:1035F00043C08FE39CE90197F1F700C00000909071
:1036000091038CE1A82EB12C97E0C92ED12CC201D8
:10361000D3010A2C04C0B695A795979587950A946F
:10362000D2F7082F0F70111549F0892D843009F059
:103630000FC40A3008F40CC480E044DE802F42DE60
:1036400010E00DC4B30188E193E040DDD2CF80915A
:10365000900380FD02C083E571DD82EE60DC8FE3C4
:103660009CE90197F1F700C0000087E567DDC1CF55
:1036700086EE64DD88E1FACFB3018BE191E026DDCF
:10368000B30185E290E022DDB30188E290E0DDCF76
:103690008430B9F18530B9F180918F03809395031F
:1036A000F7018581811509F409C4109292039E01E6
:1036B00030572332310508F0EAC384E090E00E94DD
:1036C000EE2880939D0390939E03FE01E150F04706
:1036D000E232F10508F045C0E458F64D0C94952807
:1036E0008CE22CDD8091900381FFD6CF89E326DD2B
:1036F000D3CF82EE5BD98091900380FDCDCF83E55F
:10370000F6CF88E2F4CF60E070E088E290E0DEDCA3
:10371000C3CFFE01E851FC47E730F10508F0C0CF08
:10372000E256F64D0C94952826E241EE61EE812F8B
:1037300021DDCDCE27E245EE65EEF9CF26E241EE62
:1037400060EEF5CF27E245EE64EEF1CF26E241EEE2
:1037500062EEEDCF27E245EE66EEE9CF28E241E0EA
:10376000EBCF80919D03816080939D0360919D03C9
:1037700070919E0384E090E00E940D290E94A111A7
:10378000A6CE80919E03886080939E03EFCF8091A8
:103790009D038260E9CF80919D038460E5CF809195
:1037A0009D038860E1CF80919E038160EDCF809181
:1037B0009E038260E9CF80919D038061D5CF809187
:1037C0009D038062D1CF80919D038064CDCF0E9404
:1037D000A11180919D038068C7CF80919D038C606B
:1037E000C3CF80919E038360CFCF80919D038E7F56
:1037F000BBCF80919E03877FC7CF80919D038D7F34
:10380000B3CF80919D038B7FAFCF80919D03877F46
:10381000ABCF80919E038E7FB7CF80919E038D7F2B
:10382000B3CF80919D038F7E9FCF80919D038F7D2D
:103830009BCF80919D038F7B97CF0E94A111809198
:103840009D038F7791CF80919D03837F8DCF809152
:103850009E038C7F99CF90919D03892F8B7F92FF40
:103860008460877F92FF88607FCF80919E03982F2E
:10387000909590FB80F990FB81F986CF90919D0304
:10388000892F8F7B96FF80646FCF0E94A11190914A
:103890009D03892F97FB87F9805866CF61E08EE002
:1038A00090E00E94F32862CF60E0F9CF90919D03F1
:1038B000892F8F7E94FF806157CF90919D03892F30
:1038C0008E7F90FF816050CF90919E03892F877FDC
:1038D00093FF886059CF89E2ECC289E2FAC29E0167
:1038E000205E324520323105A0F4811128C0CF710D
:1038F00081E090E002C0880F991FCA95E2F7EC01C1
:10390000682F83E090E00E94F328CE010E94040714
:10391000DECD811511F1CB359CE7D90709F473C0D1
:10392000CC359CE7D90709F463C0CA359CE7D907B1
:1039300009F467C0C2309CE7D90709F472C0C330EC
:103940009CE7D90708F061C0C1159CE7D90709F4C5
:1039500066C0C130DC4709F460C0F7010081118105
:10396000811509F474C0C8010E94410AC82F682F4C
:10397000C8010E942C07B8018C2F0E9440080E94A9
:103980005509D82FC92FF701D580068102950F70F0
:1039900080919C03877001F1CD2CD114F1F0892F17
:1039A000807F803461F08D2F805E8830A8F0892F71
:1039B000807E803221F4D23078F0011569F0809158
:1039C0009E0382FF09C082E00E94220880919C032E
:1039D0008770CC24C3948111C12CEC2FE295EF7039
:1039E000C03C08F098C0F0E0EB55F64D0C949528DB
:1039F00080919E03002482FF0394802D0E94DD109D
:103A000066CD81E0FBCF80E0F9CF09F0A6CF6FEF64
:103A10007FEF80E090E00E940D290E94BF110E947C
:103A2000D41190919403892F8E7F90FF81608093B1
:103A3000940380FF09C088E19CE09F938F930E94CC
:103A4000DC060F900F9043CD86E09CE0F6CFC801D6
:103A50000E946107C82F8FCF1C2F1F70C03110F03C
:103A60001295107FD114B9F0111569F08D2F805E79
:103A7000883010F0D11109C080919503812B80937B
:103A800095030E9421118D2F3FC080919F03812BB0
:103A900080939F03F6CF8D2F0E94D6141115D9F174
:103AA0008D2F805E883010F0D11104C0812F0E94CC
:103AB000380806C0109580919F03812380939F034F
:103AC0000E94211128C01C2F1F70C07FC03211F02E
:103AD0001295107FD13040F009F462C0D11409F47E
:103AE0006CC00115A1F1CFCF80919E0382FD2BC048
:103AF000D11461F0111539F080919503812B8093D9
:103B000095030E94211180E00ADA05C080E00E943E
:103B1000D6141111CBCFC11409F4B8C080919C0305
:103B200080FDB4C0F70115828695869586950E9422
:103B30000E07C70154DC80919C0386958695869577
:103B40000E941C07A3C0D11489F0013020F4812FFA
:103B50000E942915E0CFF9F680919603912F9823C2
:103B60001917C9F2812B80939603D5CF0111D3CFBA
:103B7000812F0E94321590919603812F892329F07D
:103B8000812F809589238093960380919703912FAD
:103B9000982309F4C0CF1095182310939703BBCF37
:103BA000D11421F0063008F0B6CFD1CF053008F09F
:103BB000B2CF812F0E943215AECF0115D1F3D93388
:103BC00049F48FEF97EE23E0815090402040E1F7D9
:103BD00000C000008D2F0E94D6149DCF8C2F86959B
:103BE00086958370813060F009F095CF8D2F9C2FE2
:103BF0009370D11002C080E090E00E949A0B8BCFAE
:103C00008D2F9C2F9370D11002C080E090E00E9415
:103C1000730B81CF6D2D8D2F0E9426107CCF8C2FA2
:103C2000837009F046C0D1102FC04D2F42954695A4
:103C30004770440F440F2D2F2F7030E0042E02C028
:103C4000220F331F0A94E2F780E090E0D4FF09C00E
:103C50008FE090E002C0880F991F4A95E2F78095A7
:103C60009095C695C695C370C230D1F0C330A9F007
:103C70004091980350919903C13069F0822B932BA6
:103C8000842395230E9404070E94620B60E0C70111
:103C90000E94750A2BCC242B352B822B932BF2CF31
:103CA000822B932B2091980330919903822793279D
:103CB000E9CFD11491F1C0FFE7CF4D2F4295469542
:103CC0004770440F440F2D2F2F7030E0042E02C098
:103CD000220F331F0A94E2F780E090E0D4FF09C07E
:103CE0008FE090E002C0880F991F4A95E2F7809517
:103CF0009095C695C695C370C230C1F0C33099F097
:103D000040919A0350919B03C13059F0822B932B21
:103D1000842395230E940907B7CF823008F4B4CFDB
:103D2000CCCF242B352B822B932BF4CF822B932BB0
:103D300020919A0330919B0382279327EBCFCF707A
:103D4000D11439F08C2F0E940E078D2F0E94291557
:103D50009BCF8D2F0E9432158C2F0E941C0794CF71
:103D6000D23F91F168F4D03FC1F0D13F89F0D11436
:103D700009F45AC0011509F454C08D2FD0D884CF4E
:103D8000D33F49F1D43F99F790919E0392FD31C002
:103D90008C2F8F71D11409F31BC0D11499F0053009
:103DA00008F072CFCF7181E090E002C0880F991FB8
:103DB000CA95E2F7EC0180919A0390919B038C27BE
:103DC0009D27A8CF0630ECCF8C2F8F71D110C5CF97
:103DD0000E940E0759CF80E090E0D11409F49ACFE9
:103DE000CF7181E090E002C0880F991FCA95E2F779
:103DF00091CFD11461F08C2F8F7192FFE9CF982F62
:103E0000990F990F990F936090939C03E1CF81E0F4
:103E10000E942208023008F437CF82E00E94220874
:103E200033CF8C2F8F71D4CF011579F0D93349F46A
:103E30008FEF97EE23E0815090402040E1F700C0E3
:103E400000008D2F0E94D6141FCF8C2F8F7185CF2D
:103E50000111F4CB84E0C816D1040CF4EFCB81E05F
:103E6000C81AD10884E0A81AB1088FEFC816DC047C
:103E700009F0CDCB80919103823009F43ACC08F05F
:103E800007CC81112DCC82EE0E94D61405CCC63110
:103E90009CE7D90709F023CD809195038A7A91E0B8
:103EA000811101C090E090939303811509F413CD23
:103EB00085E30E94C10B0E94211109CBC6319CE70A
:103EC000D90709F00CCD80919303811509F405CD34
:103ED00085E30E94DB0BEFCF8091E203803170F429
:103EE0008091E103811551F0E091A3032091A20399
:103EF0003091DD034091DC032E1301C00895BF0112
:103F000087E0E89FF0011124DF01AC55BC4F149607
:103F10008C911497811551F111968C9111978313FF
:103F200025C08C91841322C015968C911597811110
:103F30001DC012968D919D91A091DE03B091DF037B
:103F40008A1B9B0B8A3A910588F48091E2038F705B
:103F500080618093E203E655FC4F80818F70806121
:103F600080838CED93E03BDA0C9418086F5F7F4FF1
:103F7000FB01E770C1CFEF92FF920F931F93CF9396
:103F8000DF93F82EE92EC091A3038091A203C817F6
:103F900089F187E0C89FE00111248E010C551C4F68
:103FA000F8018581811589F0C8010E949A0A81155E
:103FB00061F0FE01E655FC4F80818F708061808347
:103FC000F801808191810E94EF11C80108DA809187
:103FD000A3039091A403019687708093A303CC550B
:103FE000DC4F89818E11CFCF88818F11CCCF8D810D
:103FF000811549F2CDB7DEB7E6E00C94C328FF92F5
:104000000F931F93CF93DF93EC01809114018115DF
:1040100039F0F12C8F2DCDB7DEB7E5E00C94C42834
:104020000A811B81061B170B043F81E0180788F7E4
:1040300060E0CE010E94750A9C013052303348F78F
:104040000E94EE07811529F380918D0390918E03D4
:104050000E94EE07F82E8115E1F204361105C8F62C
:104060008E818F7080618E83888199810E94EF118B
:104070000E94B307CE01B3D9CDCFADE0B0E0E3E409
:10408000F0E20C949E288C0186E0F801DE0118967F
:1040900001900D928A95E1F7F80180809180E2808D
:1040A000F380C480D58030915E03E0E0D11409F440
:1040B0003EC09CEDA92E93E0B92E8091E0038111C2
:1040C00060C0C11419F1D11409F463C2C8010E947F
:1040D0009A0A811509F45DC26091A0037091A10351
:1040E000C8018DDF811112C087E0F801D501019070
:1040F0000D928A95E1F78091E003813031F480914F
:10410000DC039091DD030E94900AE6DEFF24F39425
:1041100085C0880F991F825B9C4FDC0111962C9102
:104120001197921203C08C91881649F0EF5F8E2F81
:104130009E2F990F990B831791055CF3BACFEF3F30
:1041400009F4B7CFD80116968C918F7080618C934B
:10415000E317A0F4315030935E03E31778F4F0E0F6
:10416000EE0FFF1FE25BFC4FA32FB0E0AA0FBB1FB7
:10417000A25BBC4F8D919D91808391830E94B30778
:1041800098CF60E08CED93E00E94750A9C017090DE
:10419000E1038091DE039091DF03A701481B590BD7
:1041A000711409F4B9C14A3A510508F091C1C1141A
:1041B00009F4ACCF8091DD03F80141819091E203D5
:1041C000903108F048C1481348C04091DC03808119
:1041D000481343C0D11041C09F7090619093E20397
:1041E0008CED93E0FCD88091E203F8018683C090C7
:1041F000DE03F090DF030091A3038091A203081770
:1042000051F087E0089F800111240C551C4FF801E4
:104210008581811107C00E941808F12C8F2D2D96E1
:10422000EFE0A8C7D280E380C8010E949A0A8111FA
:104230000DC0C801D4D88091A3039091A403019626
:1042400087708093A303CD2CFE2CD5CF6C2D7F2DB2
:10425000C801D5DE8111EFCFDECF3052303308F008
:104260006FC0D110CBC040E0692D882D0E9494070B
:10427000811140C040E0692D882D0E949407F82EDE
:10428000811509F490C08CED93E0A9D860E08CED25
:1042900093E00E94750A7C017090A303072D18E03B
:1042A0008CED882E83E0982E8091A203081789F068
:1042B000580127E0029FC00111248C559C4F6C01CE
:1042C00060E00E94750A682E592EF60185818111E1
:1042D00040C0183008F464C0888599854CDE0E947F
:1042E000B3070E941808ECEDF3E087E011928A957D
:1042F000E9F793CF60E0C8010E94750AB8018CED20
:1043000093E00E94C0078111B5CF8091E2038F70C6
:1043100080618093E2038091DC039091DD030E9431
:10432000EF118CED93E05BD8ECEDF3E087E01192B8
:104330008A95E9F7888599851EDE0E94B3076BCFC1
:10434000D11409F497CF8091E20381608093E20356
:1043500064CF80EEF80E80E3F81608F0BACFB6010D
:10436000C4010E94C007811101C0012F950123954E
:10437000102F022F0770E62CF52C460195CF27E071
:10438000729EC00111248C559C4F29D82091A30303
:104390003091A4032F5F3F4F2770722E2093A30309
:1043A0001711EDCF99CF888599850E94900A292F02
:1043B00022952F70903450F49F70223078F0911530
:1043C00091F0F8019681903170F428CF2A5F2F7018
:1043D000223070F0C80103D8F72C20CF911519F0C6
:1043E000811509F41BCF805E883008F417CFF2CF17
:1043F000803F08F413CF815F8330F7CF8091E203D1
:1044000081608093E20360E0C8010E94750AB801F0
:104410008CED93E00E94C0078111FFCE8091E203F2
:104420008E7F8093E203C8010E949A0A8111F5CE23
:104430008091E2038F7080618093E2038091DC03BE
:104440009091DD030E94EF110E94B3078CED93E081
:104450000E94EF1948CF481314C02091DC038081DB
:1044600028130FC0D1100DC09683C8010E94EF1908
:1044700087E0F801ACEDB3E001900D928A95E1F789
:1044800045CEC8010E949A0A811509F482C0D11450
:1044900009F47FC08091E203803288F02091DC0330
:1044A0003091DD0329833A83EB82FC829091E00313
:1044B0009D831E828F83CE0101960E94EF1987E0B3
:1044C000F801ACEDB3E001900D928A95E1F71DCEB5
:1044D0008091E203803130F48CED93E00E94EF197B
:1044E000F50103CFC11409F411CE2091DD03F801C9
:1044F00091812913C6CF2091DC0390812913C1CF6C
:10450000D110BFCF8683C8010E94EF19F50187E063
:1045100011928A95E9F7FACD4A3A510508F7C11484
:1045200009F4F4CDD114A9F19091DD03F801818152
:10453000981319C09091DC038081981314C0809166
:10454000E20380FD95CF803108F492CF8683807F8F
:10455000803F09F48ACF8681982F907F905F8F707B
:10456000892B868382CFC8010E949A0A811561F047
:104570006091A0037091A103C80141DD811509F488
:104580009ECFECEDF3E0C3CF8091E2038160809396
:10459000E203C8010E94EF19B9CDABE1B0E0E2ED52
:1045A000F2E2D7C54E8B5F8B688F798F8A8F192F78
:1045B0009B8F911110929F031D8A86E0FE017696D3
:1045C000DE011F9601900D928A95E1F70A8D011583
:1045D00061F00B8B1C8B61E0CE010F960E94750A77
:1045E00061E0CE010F960E94750A0B8B1C8B87E051
:1045F000FE013F96DE01189601900D928A95E1F733
:10460000CE0108963ADD81112EC02091A20330918F
:10461000A30387E0AE01485F5F4FFA01475051099D
:10462000DA0101900D928A95E1F78C858115D9F018
:10463000822F90E08395877090E0AC0134171506C7
:10464000C9F197E0929FD0011124AC55BC4F9E0157
:104650002F5F3F4FF90101900D929A95E1F740933A
:10466000A2030E9418088091A3039091A2038917C6
:1046700049F027E0829FC00111248C559C4FFDDC3E
:10468000811125C08C85811112C080911401811186
:104690000EC08A859B852091A0033091A103821BC7
:1046A000930B8F3F9F4318F081E0809314016B962A
:1046B000E4E06BC50E94A1111092A2031092A30323
:1046C000ECEDF3E087E011928A95E9F7CCCF809189
:1046D000A3039091A403019687708093A303C3CF93
:1046E000A6E0B0E0E5E7F3E234C50E94EA0B8C01F6
:1046F00080914203909143038017910771F01982D2
:104700001A820E94EA0BBC0149815A8180E090E044
:1047100044DF00934203109343032696E4E035C53B
:10472000CDB7DEB72C970FB6F894DEBF0FBECDBF66
:1047300085B7806885BF85B7806885BF84B7877F68
:1047400084BF0FB6F894A89580916000886180932B
:104750006000109260000FBE80E890E00FB6F89401
:1047600080936100909361000FBE81E08093070108
:104770008DE49DE08093E0029093E1020E942F0D72
:104780000E94E00C8091E20084608093E2007894C3
:1047900080911103811599F08091E9001091EC004E
:1047A0008F7010FB112717F9182B1092E9008091D8
:1047B000E80083FD0E9421121F701093E90082E03F
:1047C00084BD93E095BD9AEF97BD80936E00A2E6FD
:1047D000EA2EA2E0FA2E0FE612E0F70181917F01A6
:1047E0008F3F11F00E94C50A0E151F05B1F7FFE6B5
:1047F000EF2EF2E0FF2E04E712E0F70181917F0136
:104800008F3F11F00E94C50A0E151F05B1F7EEE2A9
:10481000F3E08AE011928A95E9F7E8E3F3E08AE0B1
:1048200011928A95E9F780E090E0D8D4833E9E4FBC
:1048300011F00E944B1582E090E0C8D4809394035D
:1048400084E090E0CBD480939D0390939E0383E01B
:1048500090E0BCD490E00E9404078CE090E0B6D4D5
:10486000809391039091940390FF0CC01F928F93BB
:104870008DEE98E09F938F930E94DC060F900F902F
:104880000F900F9088E091E080934403909345034C
:10489000CE01019689879A8780911103853009F0AE
:1048A00071C08091940380FF08C08DE099E09F93D0
:1048B0008F930E94DC060F900F9000E110E4E2E17C
:1048C000FE2E57C080911103843019F110920F030E
:1048D00088E190E00FB6F894A895809360000FBE31
:1048E0001093600083B7817F846083BF83B781604A
:1048F00083BF7894889583B78E7F83BF0FB6F89473
:10490000A89580916000886180936000109260009B
:104910000FBE0E947915EEE2F3E0A2E1B3E080E081
:10492000219131912D933D9391E0232B09F490E057
:10493000892B28E333E02E173F0791F78115C9F043
:10494000809110038115A9F009BDF9BC09B400FEDE
:10495000FDCF8091D8008F7D8093D8008091E000BA
:1049600082608093E0008091E00081FDFCCF0E9496
:10497000A11180911103853009F4A4CF0E94A111E7
:104980000E94620B0E9479157CE1472E73E0572E3E
:104990008EE293E08F839887FC01D2012D913D91A7
:1049A0008081918146E253E04A175B0709F4BAC05F
:1049B00032962817390791F38091940381FF4AC0FA
:1049C00083E399E09F938F930E94DC060F900F90F2
:1049D0000EE213E0C12CD12C3EE2232E39E0332E1F
:1049E0004BE2642E49E0742E55E2852E59E0952E57
:1049F00063E2A62E69E0B62EDF92CF923F922F920D
:104A00000E94DC067F926F920E94DC06F801808192
:104A1000F1800E5F1F4F0E94F406E82E8F2D0E943A
:104A2000F406EF928F939F928F920E94DC06BF92C2
:104A3000AF920E94DC068FEFC81AD80A8DB79EB7D6
:104A40000C960FB6F8949EBF0FBE8DBF85E0C816BA
:104A5000D10491F602E113E0312CEF81F885E19069
:104A6000F190EF83F887F201819191912F018E15DA
:104A70009F0509F44DC08E259F258B879C87C12CEF
:104A8000D12C5601A3948B859C858A219B21892B4F
:104A900091F147018A209B2091E0692E712C0C2C0A
:104AA00002C0660C771C0A94E2F7F80180819181BC
:104AB00086219721892BA1F4C9823A820E94EA0BB0
:104AC0008B839C8381E08D8391E08114910409F4B0
:104AD00090E09E8349815A816B817C818D815DDD6F
:104AE000892849F460947094F8018081918186212D
:104AF000972180839183AA0CBB1C8FEFC81AD80A18
:104B00008DE0C816D10409F0BECFF201F292E29214
:104B100033940E5F1F4F832D853009F09ECF0E9486
:104B2000F60B05C02817390709F046CFD9DD86E016
:104B3000E7E8F3E0A985BA8501900D928A95E1F73F
:104B4000B0908803D090890300918A03C0908B03B2
:104B500010918C031092890310928A0310928B0398
:104B600010928C03802F8D29A1F0E0902803F09003
:104B700029030E94EA0B8E199F099C0190918503DD
:104B8000911509F492C0809113018217130608F45D
:104B90009AC08C2D812B09F441C0E0902603F0903F
:104BA00027030E94EA0B8E199F099C0190918403B0
:104BB000911509F4B8C02135310580F19F3F19F0F6
:104BC0009F5F90938403C11459F00E942A0B91E0D7
:104BD0001C140CF09FEF899F802D112480938B0370
:104BE000111559F00E942A0B91E011160CF09FEF5D
:104BF000899F802D112480938C0380918B038115D4
:104C000069F0F0908C03F11449F00E94DB0A809364
:104C10008B038F2D0E94DB0A80938C038091880385
:104C20008B1119C080918903811511F08D1113C06A
:104C300020918A03211511F020130DC090918C034F
:104C4000911511F0911307C030918B03311103C0FE
:104C5000822B892B11F00E94600F86E0E985FA858E
:104C6000A7E8B3E001900D928A95E1F70E94620BEC
:104C7000182F80912A03181709F40ECE10932A03D7
:104C80000E94F60B809194038570853009F004CE64
:104C90001F921F938AE499E09F938F930E94DC06F2
:104CA0000F900F900F900F90F7CD409112018AE076
:104CB000489FA00111244217530708F06ACF9F5F55
:104CC0009093850302C09F3FD1F7D11459F00E9401
:104CD000E90A91E01D140CF09FEF899F802D1124AB
:104CE00080938903011559F00E94E90A91E010169A
:104CF0000CF09FEF899F802D112480938A0380916F
:104D00008903811509F445CFF0908A03F11409F461
:104D100040CF0E94DB0A809389038F2D0E94DB0A1B
:104D200080938A0336CF2B30310508F049CF76CFF8
:104D30001F921FB61F9211248F939F93AF93BF931F
:104D400080910F03811113C08091000390910103A2
:104D5000A0910203B09103034196A11DB11D809360
:104D6000000390930103A0930203B0930303BF9148
:104D7000AF919F918F911F901FBE1F9018957894AF
:104D80001F921FB61F9211248F939F93AF93BF93CF
:104D90008091000390910103A0910203B09103035D
:104DA0000196A11DB11D8093000390930103A09370
:104DB0000203B0930303BF91AF919F918F911F9016
:104DC0001FBE1F9018951F920F920FB60F921124BD
:104DD0002F933F934F935F936F937F938F939F9303
:104DE000AF93BF93EF93FF938091E10082FF14C0D4
:104DF0008091E20082FF10C08091E1008B7F809360
:104E0000E1002091EA022F5F822F62E36FD19115BA
:104E100009F4DCC02093EA028091DA0080FF2CC004
:104E20008091D80080FF28C08091DA008E7F809327
:104E3000DA008091D90080FFFEC080E189BD82E167
:104E400089BD09B400FEFDCF81E0809311038EE09F
:104E500092E09F938F930E94DC068091ED020F9069
:104E60000F90811109C00E942F0D0E94E00C8091CB
:104E7000E20084608093E2008091E10080FF22C024
:104E80008091E20080FF1EC08091E2008E7F8093BF
:104E9000E2008091E20080618093E2008091D8007E
:104EA00080628093D80019BC85E08093110386E16D
:104EB00092E09F938F930E94DC0683E0809307012A
:104EC0000F900F908091E10084FF37C08091E20045
:104ED00084FF33C080E189BD82E189BD09B400FE51
:104EE000FDCF8091D8008F7D8093D8008091E10024
:104EF0008F7E8093E1008091E2008F7E8093E200BC
:104F00008091E20081608093E2008091EC02811543
:104F100009F49FC084E0809311038AE192E09F939B
:104F20008F930E94DC06809111030F900F908430C4
:104F300009F097C082E0809307018091E10083FF30
:104F400034C08091E20083FF30C08091E100877F10
:104F50008093E10082E0809311031092EC02809133
:104F6000E1008E7F8093E1008091E2008E7F80934C
:104F7000E2008091E20080618093E20042E060E024
:104F800080E00E94600C8091F00088608093F000C7
:104F90008EE192E09F938F930E94DC0681E08093E4
:104FA0000701809306010F900F90FF91EF91BF9141
:104FB000AF919F918F917F916F915F914F913F91B1
:104FC0002F910F900FBE0F901F9018951092EA022C
:104FD0008091F702811509F41FCF8091110384306D
:104FE000B9F49091E9008091EC009F7080FB8827D4
:104FF00087F9892B93E09093E9009091EB0090FF63
:1050000004C09091EE0097FD08C08F708093E90076
:105010001092F70201CF1092F1009091E80095FDF7
:10502000FACF9091E80090FFF0CF9091E8009E7742
:105030009093E800EACF19BC1092110382E192E04C
:105040009F938F930E94DC061092ED020F900F90B9
:1050500013CF8091E30087FF02C083E05CCF81E043
:105060005ACF81E068CF1F920F920FB60F92112492
:105070001F932F933F934F935F936F937F938F93E0
:105080009F93AF93BF93CF93DF93EF93FF93E9EE9B
:10509000F0E080811091EC008F7010FB112717F960
:1050A000182B1082C0EFD0E08881877F88837894A6
:1050B0000E942112E9EEF0E01082888188608883E6
:1050C0001F701083FF91EF91DF91CF91BF91AF914E
:1050D0009F918F917F916F915F914F913F912F9110
:1050E0001F910F900FBE0F901F901895992778E091
:1050F000880F991F961708F0961B881F7A95C9F795
:105100008095089597FB072E16F4009406D077FD3E
:1051100008D048D007FC05D03EF4909581959F4F6C
:105120000895709561957F4F0895EE0FFF1F0590CC
:10513000F491E02D09942F923F924F925F926F92DB
:105140007F928F929F92AF92BF92CF92DF92EF9217
:10515000FF920F931F93CF93DF93CDB7DEB7CA1B98
:10516000DB0B0FB6F894DEBF0FBECDBF09942A88C3
:10517000398848885F846E847D848C849B84AA846B
:10518000B984C884DF80EE80FD800C811B81AA81F8
:10519000B981CE0FD11D0FB6F894DEBF0FBECDBFC3
:1051A000ED010895AA1BBB1B51E107C0AA1FBB1F3D
:1051B000A617B70710F0A61BB70B881F991F5A95A3
:1051C000A9F780959095BC01CD010895F999FECF7E
:1051D00092BD81BDF89A992780B50895A8E1B0E005
:1051E00042E050E020C0262FF999FECF92BD81BD4C
:1051F000F89A019700B4021639F01FBA20BD0FB615
:10520000F894FA9AF99A0FBE08950396272FECDFC7
:10521000EADF252FE9DF242FE7CF0196272FE4DFF0
:10522000E2CFDC01CB01FC01F999FECF06C0F2BD53
:10523000E1BDF89A319600B40D9241505040B8F754
:105240000895FB01DC0104C08D910190801921F4C7
:1052500041505040C8F7881B990B0895F894FFCF30
:105260003210371039103E104E104E104E104E10A6
:105270004E104E104E104E104010441047104C105F
:105280005B1061106510FE1224132A1324132A13D5
:1052900078139A132A139414A1140017E71607170A
:1052A0005B164D164D16E0164D164D1637174D165A
:1052B00047174D164D164D164D164D1662174D16C5
:1052C0004D1657174D1620174D164D168D178D1765
:1052D0008D178D178D178D178D178D178D175816E4
:1052E0004D160017D216641A861A891A8C1A8F1A4C
:1052F000921A951A981A9B1AF51B5D1CFD1BC71B69
:10530000CB1B011CCF1B051C111CDB1B561CDF1B00
:10531000151CE31B191C3E1CE71B1D1C451CED1B2B
:10532000231C2B1CD31B091CD71B0D1CF11B271C7A
:10533000351C4E1C541CC11BF91B641C9E1BA21B5C
:10534000941B9A1BA61BAA1BAE1B2C1D2C1D631D98
:10535000631DEE1D0A1E8B1D8B1D0F1E9F1EB01E92
:02536000B01E7D
:105362000A1E082800000100E70BE80D020CFB0DE5
:10537200000E0114013F3F3F006D6B5F64656C617D
:1053820079006D6B5F696E74657276616C006D6B2E
:105392005F6D61785F7370656564006D6B5F7469E2
:1053A2006D655F746F5F6D6178006D6B5F776865C7
:1053B200656C5F6D61785F7370656564006D6B5FCE
:1053C200776865656C5F74696D655F746F5F6D6149
:1053D20078000A092D2056657273696F6E202D0AB6
:1053E2005649443A20307835303732282250726F8D
:1053F2006665742229205049443A20307836303686
:10540200322822417472657573363222292056453C
:10541200523A203078303030310A4255494C443AC1
:105422002020285365702020322032303236290A5B
:105432004F5054494F4E533A204C554641204D4F00
:105442005553454B45592045585452414B455920D7
:10545200434F4E534F4C4520434F4D4D414E4420F8
:105462004C544F20343039360A4743433A203135C1
:105472002E322E30204156522D4C4942433A203290
:105482002E322E31204156525F415243483A20611A
:105492007672350A00310032003300340035005B89
:1054A200000102E1270103E1000102E1350103E10C
:1054B200006300447B153C01C100AC009201AB01CA
:1054C200C401F4F5F6F7313332363534C6976692B5
:1054D20093919094E200E900EA00B500B600B700AB
:1054E200CD008301CC008A019201940121022302A2
:1054F20024022502260227022A02B300B4006F000A
:1055020070009F01CB019F02A002E200E900EA00C5
:10551200B500B600B700CD008301CC008A0192012C
:1055220094012102230224022502260227022A02D2
:10553200B300B4006F0070009F01CB019F02A00274
:00000001FF
